:020000040000FA
:100000008A11F92F00308A000408840A820700341C
:10001000013400340A34003464340034E8340334E6
:1000200010342734013400341034003400340134E7
:10003000003410345034523432343D342534643476
:10004000203409342034433443345034523431346E
:100050004C343D342534783420340934203444344D
:100060004334313442343D34253478340A34003456
:100070003034313432343334343435343634373444
:10008000383439346134623463346434653466340A
:100090000034483465346C346C346F342034573455
:1000A0006F3472346C34643421340A340A340034CA
:1000B200F000831203130C1E5F2860285A28700870
:1000C20099000800F80078080319682869287D2833
:1000D200F31F6C286D287D287009FA007109FB0056
:1000E2007209FC007309FD00FA0A0319FB0A0319DD
:1000F200FC0A0319FD0A85287308FD007208FC003A
:100102007108FB007008FA0073087204710470042D
:10011200031D8C288D2896280030F3000030F20051
:100122000030F1000030F0001C299630F400740811
:10013200F900A8280130F4007408F907013003100F
:10014200FD0CFC0CFB0CFA0CFF3E031DA028FE303C
:100152007D05031DAD28AE289B28CA280130F40076
:100162007408F9070130FA07003003180130FB0761
:10017200003003180130FC07003003180130FD077E
:1001820001300310FD0CFC0CFB0CFA0CFF3E031DAE
:10019200C228FF307D05031DCF28D028AF28DC28D8
:1001A2000130F9020130F4000310FA0DFB0DFC0DD1
:1001B200FD0DF40BD528FC1BDF28E028E6280230D1
:1001C20079020318E528E628D1287918E928EA28CF
:1001D200F228FF30FA05FF30FB057F30FC05FF30C7
:1001E200FD050310F90C7908F400F501F601F70199
:1001F20018300310F40DF50DF60DF70DFF3E031D3B
:10020200FA287408FA047508FB047608FC047708D7
:10021200FD04780803190E290F291429F31F122946
:1002220013291429FD177D08F3007C08F2007B08CE
:10023200F1007A08F0000800831203133C088039A9
:10024200BD003D08C6003C08BD003D07BE003E089B
:10025200CD00BB1F2D292E292F294D144D0803191E
:100262003329342944294D0A031D382939294129C2
:100272000030BC000030BB000030BA000030B900D2
:10028200BB17BC014C290030BC000030BB00003061
:10029200BA000030B90038088039BD003D08C606F2
:1002A2003808BD003D07BE003E08CE00B71F5A29E0
:1002B2005B295C294E144E080319602961297129B2
:1002C2004E0A031D652966296E290030B8000030E8
:1002D200B7000030B6000030B500B717B801792971
:1002E2000030B8000030B7000030B6000030B50072
:1002F2003808370436043504031D802981299A29D8
:100302000030BC000030BB000030BA000030B90041
:100312008030BB047F30BC044608BD003D08BC04ED
:100322003C08B8003B08B7003A08B6003908B500E7
:10033200F92A4D08031D9E299F29A8290030B800DB
:100342000030B7000030B6000030B500F92A4D0881
:10035200BD00BE013E08C0004E083D02BF00031CA6
:10036200C0033F087F3EC70040080318013E003E1D
:10037200C8003C08C5003B08C4003A08C30039085D
:10038200C2000030BC000030BB000030BA000030B8
:10039200B9000030CC000030CB000030CA00003081
:1003A200C900CE011E2A4E080319D829D929F929D4
:1003B2000130BD000310C20DC30DC40DC50DBD0B30
:1003C200DB290130BD000310B90DBA0DBB0DBC0D08
:1003D200BD0BE429CC1FEE29EF29F0293914013095
:1003E200BD000310C90DCA0DCB0DCC0DBD0BF229FA
:1003F20038084502031D072A37084402031D072A4D
:1004020036084302031D072A35084202031C0A2A42
:100412000B2A1A2A4C173508C2023608031C360F5B
:10042200C3023708031C370FC4023808031C380FF5
:10043200C5020130BD003D08CE071A304E02031C32
:10044200232A242AD42945084404430442040319D4
:100452002B2A2C2A4B2A49144B2A0130BD000310A7
:10046200B90DBA0DBB0DBC0DBD0B302ACC1F3A2AFB
:100472003B2A3C2A39140130BD000310C90DCA0DB4
:10048200CB0DCC0DBD0B3E2AFF30C7070318C80A9F
:10049200FF30C807BB1F4E2A4F2A2E2ACE01CC1F7F
:1004A200532A542A702AFF304905BD00FF304A05FD
:1004B200BE00FF304B05BF007F304C05C000400836
:1004C2003F043E043D040319672A682A6B2ACE01C1
:1004D200CE0A702A391C6E2A6F2A702A682A4E08A0
:1004E2000319742A752AA62A0130B90700300318A5
:1004F2000130BA07003003180130BB07003003187F
:100502000130BC073C1C862A872AA62A3908BD006E
:100512003A08BE003B08BF003C08C0000130C100E1
:10052200400DC00CBF0CBE0CBD0CC10B912A400883
:10053200BC003F08BB003E08BA003D08B9000130CC
:10054200C7070318C80A0030C8074808803AFF00E6
:1005520080307F02031DAF2AFF304702031CB22AFC
:10056200B32AC12AFF3083120313C7000030C80028
:100572000030BC000030BB000030BA000030B900CF
:10058200831203134808803AFF0080307F02031D64
:10059200CC2A013047020318CF2AD02ADD2A83123F
:1005A2000313C701C8010030BC000030BB0000309B
:1005B200BA000030B900C601831203134708BD0018
:1005C2003D08CD004D1CE62AE72AE92ABB17ED2A91
:1005D2007F30BD003D08BB054D08BD0003103D0C3A
:1005E200BE003E08BC004608BD003D08BC0491297F
:1005F20008008A1543218A118A1532218A11FB309B
:100602008312031385008A1521218A115230831225
:100612000313D0002930CF00CF0B0D2BD00B0D2BA5
:1006220000004F308A1566238A1142308A156623EC
:100632008A11831203130508EF3985008A153221C6
:100642008A11C83083160313B9000030BA003A0881
:10065200803AFF0080307F02031D312B14303902B3
:100662000318342B352B362B1F2B83160313390813
:10067200F0003A08F1000030F11BFF30F200F30005
:1006820001308A1163208A11730883120313B800A0
:100692007208B7007108B6007008B5004930BC0096
:1006A2007430BB002430BA000030B9008A111D2119
:1006B2008A1183120313380883160313B2008312BC
:1006C2000313370883160313B1008312031336088A
:1006D20083160313B0008312031335088316031322
:1006E200AF000F08703983120313CF004F0883162F
:1006F2000313BF00D42B003083160313C300003052
:10070200C2000030C1000030C000F82B0030831658
:100712000313C3000030C2000030C1000030C0002B
:10072200F82B003083160313C3000030C2000030E0
:10073200C1000030C000F82B3F3083160313C30002
:100742008030C2000030C1000030C000F82B4030C1
:1007520083160313C3000030C2000030C100003012
:10076200C000F82B403083160313C3008030C20050
:100772000030C1000030C000F82B41308316031353
:10078200C3000030C2000030C1000030C000F82BAE
:10079200423083160313C3000030C2000030C10090
:1007A2000030C000F82B3F0883120313CF00D001A2
:1007B2005008003A0319DE2BF82B4F08003A0319B0
:1007C200C92B103A0319BE2B303A0319B32B103A36
:1007D2000319A82B703A03199D2B103A0319922B77
:1007E200303A0319872B103A03197C2BF82B83120A
:1007F20012080339003A031DFF2B002C0B2C3F304B
:1008020083160313C7008030C6000030C5000030D5
:10081200C4002F2C12080339013A031D112C122C8B
:100822001D2C403083160313C7008030C6000030F1
:10083200C5000030C4002F2C1208033902390319F5
:10084200232C242C2F2C413083160313C700803015
:10085200C6000030C5000030C4002F2C4030831287
:10086200A3008030A2000030A1000030A000831657
:100872000313430883120313A700831603134208CA
:1008820083120313A6008316031341088312031372
:10089200A50083160313400883120313A4008A15CC
:1008A200B1248A1183120313230883160313AD00A4
:1008B20083120313220883160313AC00831203135B
:1008C200210883160313AB00831203132008831637
:1008D2000313AA00470883120313A300831603130A
:1008E200460883120313A2008316031345088312DA
:1008F2000313A10083160313440883120313A000F9
:10090200831603132D0883120313A7008316031300
:100912002C0883120313A600831603132B088312D9
:100922000313A500831603132A0883120313A400DA
:100932008A15B1248A11831203132308B8002208EE
:10094200B7002108B6002008B50083160313320849
:1009520083120313BC00831603133108831203139B
:10096200BB0083160313300883120313BA008316E5
:1009720003132F0883120313B9008A111D218A1150
:1009820083120313380883160313B8008312031368
:10099200370883160313B70083120313360883162E
:1009A2000313B60083120313350883160313B5002D
:1009B2003F2E831603134708F3004608F20045084A
:1009C200F1004408F0003F30F7008030F6000030BC
:1009D200F5000030F4008A15FC218A11031CF22C68
:1009E200F32C042D831203131208FC3901389200F0
:1009F200403083160313C7008030C6000030C500A4
:100A02000030C400942D831603134708F3004608F0
:100A1200F2004508F1004408F0004030F700803051
:100A2200F6000030F5000030F4008A15FC218A112E
:100A3200031C1C2D1D2D2E2D831203131208FC39AD
:100A420002389200413083160313C7008030C6007B
:100A52000030C5000030C400942D831603134708EC
:100A6200F3004608F2004508F1004408F000413066
:100A7200F7008030F6000030F5000030F4008A15EF
:100A8200FC218A11031C462D472D942D622D203006
:100A9200831603138F004030C3008030C200003041
:100AA200C1000030C000882D1030831603138F0060
:100AB2004130C3000030C2000030C1000030C0002D
:100AC200882D831603133F0883120313CF00D0012E
:100AD2005008003A03196E2D882D4F08003A031969
:100AE200F72F103A0319882D303A0319552D103A71
:100AF2000319482D703A0319882D103A0319882DCD
:100B0200303A0319882D103A0319882D882D83163F
:100B120003130F08703983120313CF004F08831693
:100B22000313BF00942D403083120313A3008030BF
:100B3200A2000030A1000030A00083160313430876
:100B420083120313A70083160313420883120313AD
:100B5200A60083160313410883120313A50083160C
:100B62000313400883120313A4008A15B1248A11C7
:100B720083120313230883160313AD008312031396
:100B8200220883160313AC00831203132108831671
:100B92000313AB0083120313200883160313AA0066
:100BA200470883120313A300831603134608831214
:100BB2000313A20083160313450883120313A10033
:100BC20083160313440883120313A000831603132E
:100BD2002D0883120313A700831603132C08831214
:100BE2000313A600831603132B0883120313A50015
:100BF200831603132A0883120313A4008A15B1244F
:100C02008A11831203132308B8002208B7002108AF
:100C1200B6002008B50083160313320883120313AB
:100C2200BC0083160313310883120313BB0083161F
:100C32000313300883120313BA00831603132F0819
:100C420083120313B9008A111D218A11831203131F
:100C5200380883160313B800831203133708831668
:100C62000313B70083120313360883160313B60067
:100C720083120313350883160313B5004330F300C0
:100C82007F30F2000030F1000030F0003808F70049
:100C92003708F6003608F5003508F4008A15C42234
:100CA2008A11031C552E562EDA2C8316031338088C
:100CB200F3003708F2003608F1003508F000003082
:100CC200F7000030F6000030F5000030F4008A151D
:100CD200C4228A11031C6E2E6F2EDA2C8316031384
:100CE2003808F3003708F2003608F1003508F00042
:100CF2008A154A228A11700883120313CF004F0803
:100D020083160313AE002E089200403083120313A1
:100D1200B8000030B7000030B6000030B5008316CE
:100D22000313320883120313BC0083160313310822
:100D320083120313BB0083160313300883120313B9
:100D4200BA00831603132F0883120313B9008A1102
:100D52001D218A1183120313380883160313A60078
:100D620083120313370883160313A5008312031398
:100D7200360883160313A40083120313350883165F
:100D82000313A300430883120313A3008316031360
:100D9200420883120313A20083160313410883122D
:100DA2000313A10083160313400883120313A00048
:100DB20083160313470883120313A7008316031332
:100DC200460883120313A6008316031345088312F1
:100DD2000313A50083160313440883120313A4000C
:100DE2008A15B1248A11831203132308B80022083A
:100DF200B7002108B6002008B500831603132608A1
:100E020083120313BC0083160313250883120313F2
:100E1200BB0083160313240883120313BA0083163C
:100E22000313230883120313B9008A111D218A11A7
:100E320083120313380883160313BE0083120313AD
:100E4200370883160313BD00831203133608831673
:100E52000313BC0083120313350883160313BB006C
:100E62004430F3007F30F200C030F1000030F00077
:100E72003E08F7003D08F6003C08F5003B08F40088
:100E82008A15C4228A11031C472F482F5D2F83160F
:100E920003133E08F3003D08F2003C08F1003B0852
:100EA200F0000030F7000030F6000030F5000030AE
:100EB200F4008A15C4228A11831603133E08F30034
:100EC2003D08F2003C08F1003B08F0008A154A2276
:100ED2008A11710883120313D0007008CF00031027
:100EE200D00CCF0C0310D00CCF0C4F08D1005108FE
:100EF20083160313B3003E08F3003D08F2003C08DA
:100F0200F1003B08F0008A154A228A117008033961
:100F120083120313CF004F0883160313B400330860
:100F220083120313950083160313340803398312C3
:100F32000313CF00CF0E17084F06CF394F06970085
:100F42001215831603132E0883120313CF00D00148
:100F52004F08A0005008A100831603133308831220
:100F62000313D100D2015108A2005208A300831634
:100F72000313340883120313D300D4015308A400CB
:100F82005408A50013308A1566238A11303083165F
:100F920003133F06031DCE2FCF2FDE2F0230831205
:100FA2000313D100E730D0000030CF00CF0BD72F92
:100FB200D00BD72FD10BD72FEE2F20303F06031D9A
:100FC200E32FE42FEE2FF43083120313D00080308E
:100FD200CF00CF0BEA2FD00BEA2FEC30831603138E
:100FE200B9070318BA0AFF30BA07282B8A1100285A
:0E0FF20083120313D501D60183018A11FA2A56
:101242000C308316031399002430980090308312D7
:101252000313980083160313981683120313981727
:1012620008003030831603138F008312031317080C
:10127200F0390C389700171397131208FC3901380C
:101282009200080083160317880183160313850151
:10129200FF30831203138500831603138601831222
:1012A200031386018316031387010800F800F40173
:1012B200F5017008F200F3017208F6007308F700F6
:1012C200781C642965296B297608F4070318F50A46
:1012D2007708F50701300310F60DF70DFF3E031DE9
:1012E2006C290310F80C7808031D782979296129E3
:1012F2007508F1007408F0000800780879040319F1
:1013020083298429B329FD01FD0A922901300310A2
:10131200F80DF90DFF3E031D88290130FC007C0801
:10132200FD07F91F95299629872979087B02031D54
:101332009C2978087A02031C9F29A029A6297808EB
:10134200FA027908031CFB03FB0201300310F90CBB
:10135200F80CFF3E031DA7290130FD02031DB2292F
:10136200B32996297B08F9007A08F8000800F501EC
:10137200F601700871040319BF29C029F729F70182
:10138200F70ACE2901300310F00DF10DFF3E031DC7
:10139200C4290130F4007408F707F11FD129D229BA
:1013A200C32901300310F50DF60DFF3E031DD329AD
:1013B20071087302031DDF2970087202031CE229FF
:1013C200E329EA297008F2027108031CF303F3020D
:1013D200751401300310F10CF00CFF3E031DEB29D4
:1013E2000130F702031DF629F729D2297608F10008
:1013F2007508F000080000307005F8000030710533
:10140200F90080307205FA007F307305FB007B081B
:101412007A0479047804031D0F2A102A182A00304E
:10142200F3000030F2000030F1000030F000003034
:101432007405F80000307505F90080307605FA0071
:101442007F307705FB007B087A0479047804031D5A
:101452002B2A2C2A342A0030F7000030F600003004
:10146200F5000030F40077087306031D422A76085F
:101472007206031D422A75087106031D422A74086A
:1014820070060319452A462A482A0310492A0314DA
:1014920008000310720D730DF4007408FA007A0844
:1014A200031D542A552A5E2A0030F3000030F20050
:1014B2000030F1000030F000C32A7008F400710817
:1014C200F5007208F6007308F7001F300310F70CDE
:1014D200F60CF50CF40CFF3E031D672A7408F800A5
:1014E2007808F900F217FF30F005FF30F105FF3000
:1014F200F2050030F3059630FA02FA1F812A822A99
:101502009C2A7A08803A973E0318882A892A8A2ACE
:10151200552A01300310F30CF20CF10CF00CFF3ED3
:10152200031D8B2A0130F4007408FA07031D9A2A5E
:101532009B2A8A2AB32A20307A02031CA12AA22AD1
:10154200AE2A552A0130F4000310F00DF10DF20D10
:10155200F30DF40BA52A0130FA027A08031DB22A10
:10156200B32AA32A79080319B72AB82AC32AF00989
:10157200F109F209F309F00A0319F10A0319F20A4F
:101582000319F30A080000307005F80000307105F5
:10159200F90080307205FA007F307305FB007B088A
:1015A2007A0479047804031DD72AD82AE02A003065
:1015B200F3000030F2000030F1000030F0000030A3
:1015C2007405F80000307505F90080307605FA00E0
:1015D2007F307705FB007B087A0479047804031DC9
:1015E200F32AF42AFC2A0030F7000030F60000301B
:1015F200F5000030F400F31FFF2A002B242B0030EB
:10160200F8000030F9000030FA008030FB0070086A
:10161200F8027108031C710F0F2B102BF9027208CC
:10162200031C720F152B162BFA027308031C730F7F
:101632001B2B1C2BFB027B08F3007A08F2007908B3
:10164200F1007808F000F71F272B282B4C2B0030D5
:10165200F8000030F9000030FA008030FB00740816
:10166200F8027508031C750F372B382BF902760820
:10167200031C760F3D2B3E2BFA027708031C770FD3
:10168200432B442BFB027B08F7007A08F60079080B
:10169200F5007808F4008030F3068030F70677080A
:1016A2007302031D5E2B76087202031D5E2B750802
:1016B2007102031D5E2B740870020318612B622BEA
:1016C200642B0310652B0314080083120313AB0071
:1016D2002030A6002608AA009E2C253030060319C9
:1016E200732B742B792B30088A1159208A159E2C62
:1016F200AD017D2BAD179B2B0130AB07FF302B07C4
:1017020084008A1102208A15B000A600A7012708CA
:10171200003A03198D2B9E2C2608003A0319B02C8F
:10172200643A03199B2B0D3A03199B2B113A0319A7
:101732007B2B9E2CAD1B9E2B9F2BB92B2A08840042
:1017420083130008AE00840A0008AF000230A6002E
:101752002608AA07AF1FAE2BAF2B102C0330A60012
:101762002608AD04AE09AF09AE0A0319AF0A102C60
:101772002A08840083130008AE00840A0008AF0020
:101782000230A6002608AA07102CB001B00A3008C1
:10179200A6002607013E84008A1102208A15A700AE
:1017A2008A1102208A15A80028082F02031DDB2BAC
:1017B20027082E020318DE2BDF2BE02B212C013011
:1017C200A6002608B00705303006031DE92BEA2BD8
:1017D200C82B212CB001B00A3008A60026070B3E08
:1017E20084008A1102208A15A7008A1102208A1514
:1017F200A80028082F02031D002C27082E02031818
:10180200032C042C052C212C0130A6002608B0073D
:1018120004303006031D0E2C0F2CED2B212C2D082D
:101822008039A600A7012708003A0319192C212C98
:101832002608003A0319C62B803A0319EB2B212CF8
:101842002D0803390319262C272C2B2C2D308A1115
:1018520059208A15831203133008A6002608AC000B
:10186200932C0A30F8000030F9002C08A600260755
:10187200013E84008A1102208A15F0008A1102209A
:101882008A15F1002F08F3002E08F2008A15B821FC
:101892008A157108FB007008FA008A157E218A15E4
:1018A2007808303E83120313A7002708B0008F2C5C
:1018B2002C08A60026070B3E84008A1102208A15F6
:1018C200F0008A1102208A15F1002F08F3002E0879
:1018D200F2008A15B8218A1570080F398312031392
:1018E200A7002708A9002908313E84008A11022096
:1018F2008A15A6002608B0008F2C2D088039A60074
:10190200A7012708003A0319872C8F2C2608003AD2
:101912000319322C803A0319592C8F2C30088A1162
:1019220059208A15FF3083120313A6002608AC073C
:101932002C0A031D9D2C9E2C7E2C01308312031336
:10194200AB07FF302B0784008A1102208A15A600FC
:101952002608B0003008031DAF2CB02C6E2B0800F7
:101962008312031323088039F9007908A800230899
:10197200F9007907FA007A08AE00A21FC12CC22C26
:10198200C32C2E142E080319C72CC82CD72C2E0AB0
:10199200031DCC2CCD2CD52C0030A3000030A2008E
:1019A2000030A1000030A000A217DF2C0030A300FD
:1019B2000030A2000030A1000030A00027088039CA
:1019C200F9007908A8062708F9007907FA007A08C9
:1019D200AD00A61FED2CEE2CEF2C2D142D080319B3
:1019E200F32CF42C032D2D0A031DF82CF92C012DB8
:1019F2000030A7000030A6000030A5000030A4008F
:101A0200A6170B2D0030A7000030A6000030A5005D
:101A12000030A4002D0803190F2D102D152D2E08AE
:101A2200031D142D152D1E2D0030A3000030A20021
:101A32000030A1000030A000FF2F2008F900790833
:101A4200F00026088A1557218A157108831203139C
:101A5200B4007008B3003308F900FA01FB01FC017D
:101A62007C08AC007B08AB007A08AA007908A900C0
:101A72003408F900FA01FB01FC017C08B2007B0882
:101A8200B1007A08B0007908AF002108F90079089E
:101A9200F00025088A1557218A157108831203134D
:101AA200B4007008B3003308F900FA01FB01FC012D
:101AB2007908A9077A0803110318013E0319622D58
:101AC200AA077B0803110318013E0319692DAB070E
:101AD2007C0803110318013E0319702DAC0734086A
:101AE200F900FA01FB01FC017908AF077A0803113A
:101AF2000318013E03197E2DB0077B08031103185A
:101B0200013E0319852DB1077C0803110318013E1C
:101B120003198C2DB2072208F9007908F000240875
:101B22008A1557218A15710883120313B4007008AD
:101B3200B3003308F900FA01FB01FC017908A90797
:101B42007A0803110318013E0319A82DAA077B087E
:101B520003110318013E0319AF2DAB077C080311D3
:101B62000318013E0319B62DAC073408F900FA0137
:101B7200FB01FC017908AF077A0803110318013E43
:101B82000319C42DB0077B0803110318013E031982
:101B9200CB2DB1077C0803110318013E0319D22D86
:101BA200B2070830F9000310A90DAA0DAB0DAC0D58
:101BB200F90BD42D2108F9007908F00024088A15C0
:101BC20057218A15710883120313B4007008B300F9
:101BD2003308F9003408FA00FB01FC017908A9076F
:101BE2007A0803110318013E0319F82DAA077B088E
:101BF20003110318013E0319FF2DAB077C080311E3
:101C02000318013E0319062EAC072008F9007908D3
:101C1200F00025088A1557218A15710883120313CB
:101C2200B4007008B3003308F9003408FA00FB016D
:101C3200FC017908A9077A0803110318013E031968
:101C4200232EAA077B0803110318013E03192A2E2B
:101C5200AB077C0803110318013E0319312EAC07B0
:101C62000830F9000310A90DAA0DAB0DAC0DF90B4C
:101C7200332E2008F9007908F00024088A1557212C
:101C82008A15710883120313B4007008B300330875
:101C9200F9003408FA00FB01FC017908A9077A0867
:101CA20003110318013E0319572EAA077B080311DB
:101CB2000318013E03195E2EAB077C0803110318BB
:101CC200013E0319652EAC072108F9007908F000DE
:101CD20026088A1557218A15710883120313B40046
:101CE2007008B3003308F9003408FA00FB01FC0164
:101CF2007908AF077A0803110318013E0319822EEF
:101D0200B0077B0803110318013E0319892EB1079E
:101D12007C0803110318013E0319902EB207220812
:101D2200F9007908F00025088A1557218A157108EB
:101D320083120313B4007008B3003308F9003408A7
:101D4200FA00FB01FC017908AF077A0803110318B6
:101D5200013E0319AD2EB0077B0803110318013EA3
:101D62000319B42EB1077C0803110318013E0319AD
:101D7200BB2EB2072208F9007908F00026088A155E
:101D820057218A15710883120313B4007008B30037
:101D92003308F9003408FA00FB01FC010830031093
:101DA200F90DFA0DFB0DFC0DFF3E031DD02E790837
:101DB200AF077A0803110318013E0319E12EB00799
:101DC2007B0803110318013E0319E82EB1077C08B2
:101DD20003110318013E0319EF2EB2072908F90077
:101DE2002A08FA002B08FB002C08FC00183003100C
:101DF200FC0CFB0CFA0CF90CFF3E031DF82E7908C3
:101E0200AF077A0803110318013E0319092FB0071F
:101E12007B0803110318013E0319102FB1077C0838
:101E220003110318013E0319172FB2070830F900F6
:101E32000310A90DAA0DAB0DAC0DF90B192F2E082D
:101E42002D07F900FA01FA0D7908823EB3007A08EB
:101E52000318013EFF3EB4004B2F0130F90003107E
:101E6200AF0DB00DB10DB20DF90B302FAC1F3A2FE3
:101E72003B2F3C2F2F140130F9000310A90DAA0D9E
:101E8200AB0DAC0DF90B3E2FFF30B3070318B40AAC
:101E9200FF30B407B11F4E2F4F2F2E2FAD01AC1FB5
:101EA200532F542F702FFF302905F900FF302A05D8
:101EB200FA00FF302B05FB007F302C05FC007C086C
:101EC2007B047A0479040319672F682F6B2FAD0105
:101ED200AD0A702F2F1C6E2F6F2F702F682F2D08B9
:101EE2000319742F752FA62F0130AF070030031886
:101EF2000130B007003003180130B1070030031879
:101F02000130B207321C862F872FA62F2F08F90027
:101F12003008FA003108FB003208FC000130FD00F5
:101F22007C0DFC0CFB0CFA0CF90CFD0B912F7C08C0
:101F3200B2007B08B1007A08B0007908AF00013026
:101F4200B3070318B40A0030B4073408803AFF001C
:101F520080307F02031DAF2FFF303302031CB22FEC
:101F6200B32FBE2F7F3083120313B2008030B10033
:101F72000030B0000030AF00F32F83120313340897
:101F8200803AFF0080307F02031DC92F01303302E7
:101F92000318CC2FCD2FD92F003083120313B20098
:101FA2000030B1000030B0000030AF00A801F32FC4
:101FB200831203133308F9007908AE00FF30AF052E
:101FC200FF30B0057F30B1050030B2052E1CEA2F7C
:101FD200EB2FEC2FB1172E08F9000310790CFA0041
:101FE2007A08B2002808F9007908B2043208A3007E
:0E1FF2003108A2003008A1002F08A00008004E
:04400E00F42FFF3F4D
:00000001FF
